:020000040800F2
:1000000000000320A9DE0008E5490008E9490008CE
:10001000ED490008F1490008F5490008000000001A
:10002000000000000000000000000000313800085F
:10003000F949000800000000ED37000825370008E6
:10004000F9DE0008F9DE0008F9DE0008F9DE000834
:10005000F9DE0008F9DE0008F9DE0008F9DE000824
:10006000F9DE0008F9DE0008F9DE0008F9DE000814
:10007000FD490008F9DE0008F9DE0008F9DE000895
:10008000F9DE0008F9DE0008590D0008F9DE000865
:10009000F9DE0008F9DE0008F9DE0008F9DE0008E4
:1000A000F9DE0008F9DE0008F9DE0008F9DE0008D4
:1000B000F9DE0008F9DE0008F9DE0008F9DE0008C4
:1000C000F9DE0008F9DE0008F9DE0008F9DE0008B4
:1000D000F9DE0008F9DE0008F9DE0008F9DE0008A4
:1000E000F9DE0008F9DE0008F9DE0008F9DE000894
:1000F000F9DE0008F9DE0008F9DE0008F9DE000884
:10010000F9DE0008F9DE0008014A0008F9DE0008FF
:10011000F9DE0008F9DE0008F9DE0008F9DE000863
:10012000FD0C0008F9DE0008F9DE0008F9DE000821
:10013000F9DE0008291400080D4A0008F9DE00085D
:10014000F9DE0008F9DE0008F9DE0008F9DE000833
:10015000F9DE0008F9DE0008F9DE0008F9DE000823
:10016000F9DE0008F9DE0008F9DE0008F9DE000813
:10017000F9DE0008F9DE0008F9DE0008F9DE000803
:10018000F9DE0008F9DE0008F9DE0008F9DE0008F3
:10019000F9DE0008F9DE0008F9DE0008F9DE0008E3
:0C01A000F9DE0008F9DE0008F9DE0008B6
:1001B00081F0004102E000BF83F0004330B54FEA18
:1001C00041044FEA430594EA050F08BF90EA020F85
:1001D0001FBF54EA000C55EA020C7FEA645C7FEA18
:1001E000655C00F0E2804FEA5454D4EB5555B8BF3B
:1001F0006D420CDD2C4480EA020281EA030382EAAC
:10020000000083EA010180EA020281EA0303362D3D
:1002100088BF30BD11F0004F4FEA01314FF4801C10
:100220004CEA113102D0404261EB410113F0004F22
:100230004FEA03334CEA133302D0524263EB4303D9
:1002400094EA050F00F0A780A4F10104D5F1200E77
:100250000DDB02FA0EFC22FA05F2801841F10001D2
:1002600003FA0EF2801843FA05F359410EE0A5F1A6
:1002700020050EF1200E012A03FA0EFC28BF4CF0D7
:10028000020C43FA05F3C01851EBE37101F000458D
:1002900007D54FF0000EDCF1000C7EEB00006EEB9A
:1002A0000101B1F5801F1BD3B1F5001F0CD3490824
:1002B0005FEA30004FEA3C0C04F101044FEA44527B
:1002C00012F5800F80F09A80BCF1004F08BF5FEA02
:1002D000500C50F1000041EB045141EA050130BDE2
:1002E0005FEA4C0C404141EB0101013C28BFB1F5F4
:1002F000801FE9D291F0000F04BF01460020B1FA3F
:1003000081F308BF2033A3F10B03B3F120020CDA11
:100310000C3208DD02F1140CC2F10C0201FA0CF0EF
:1003200021FA02F10CE002F11402D8BFC2F1200C54
:1003300001FA02F120FA0CFCDCBF41EA0C0190400A
:10034000E41AA2BF01EB0451294330BD6FEA040453
:100350001F3C1CDA0C340EDC04F11404C4F120023E
:1003600020FA04F001FA02F340EA030021FA04F350
:1003700045EA030130BDC4F10C04C4F1200220FAA7
:1003800002F001FA04F340EA0300294630BD21FAE5
:1003900004F0294630BD94F0000F83F4801306BFAB
:1003A00081F480110134013D4EE77FEA645C18BF9F
:1003B0007FEA655C29D094EA050F08BF90EA020F36
:1003C00005D054EA000C04BF1946104630BD91EA2E
:1003D000030F1EBF0021002030BD5FEA545C05D131
:1003E0004000494128BF41F0004130BD14F5800470
:1003F0003CBF01F5801130BD01F0004545F0FE41E4
:1004000041F470014FF0000030BD7FEA645C1ABF18
:10041000194610467FEA655C1CBF0B46024650EA4F
:10042000013406BF52EA033591EA030F41F400217B
:1004300030BD00BF90F0000F04BF0021704730B501
:100440004FF4806404F132044FF000054FF00001D6
:1004500050E700BF90F0000F04BF0021704730B597
:100460004FF4806404F1320410F0004548BF40426C
:100470004FF000013EE700BF42004FEAE2014FEAC1
:1004800031014FEA02701FBF12F07F4393F07F4F9C
:1004900081F06051704732F07F4208BF704793F09F
:1004A0007F4F04BF41F40021704730B54FF46074B2
:1004B00001F0004521F000411CE700BF50EA0102B5
:1004C00008BF704730B54FF000050AE050EA01025E
:1004D00008BF704730B511F0004502D5404261EBCE
:1004E00041014FF4806404F132045FEA915C3FF40F
:1004F000D8AE4FF003025FEADC0C18BF03325FEAAC
:10050000DC0C18BF033202EBDC02C2F1200300FA5C
:1005100003FC20FA02F001FA03FE40EA0E0021FA81
:1005200002F11444BDE600BF70B54FF0FF0C4CF46F
:10053000E06C1CEA11541DBF1CEA135594EA0C0F21
:1005400095EA0C0F00F0DEF82C4481EA030621EA5C
:100550004C5123EA4C5350EA013518BF52EA033597
:1005600041F4801143F4801338D0A0FB02CE4FF049
:100570000005E1FB02E506F00042E0FB03E54FF079
:100580000006E1FB03569CF0000F18BF4EF0010E71
:10059000A4F1FF04B6F5007F64F5407404D25FEA6D
:1005A0004E0E6D4146EB060642EAC62141EA555120
:1005B0004FEAC52040EA5E504FEACE2EB4F1FD0C62
:1005C00088BFBCF5E06F1ED8BEF1004F08BF5FEAE0
:1005D000500E50F1000041EB045170BD06F0004692
:1005E00046EA010140EA020081EA0301B4EB5C043F
:1005F000C2BFD4EB0C0541EA045170BD41F4801137
:100600004FF0000E013C00F3AB8014F1360FDEBF5B
:10061000002001F0004170BDC4F10004203C35DA37
:100620000C341BDC04F11404C4F1200500FA05F3BA
:1006300020FA04F001FA05F240EA020001F000425B
:1006400021F0004110EBD37021FA04F642EB0601D1
:100650005EEA430E08BF20EAD37070BDC4F10C04FB
:10066000C4F1200500FA04F320FA05F001FA04F2BF
:1006700040EA020001F0004110EBD37041F10001AB
:100680005EEA430E08BF20EAD37070BDC4F12005B6
:1006900000FA05F24EEA020E20FA04F301FA05F21E
:1006A00043EA020321FA04F001F0004121FA04F2C6
:1006B00020EA020000EBD3705EEA430E08BF20EA96
:1006C000D37070BD94F0000F0FD101F000464000D0
:1006D00041EB010111F4801F08BF013CF7D041EA52
:1006E000060195F0000F18BF704703F00046520056
:1006F00043EB030313F4801F08BF013DF7D043EA27
:100700000603704794EA0C0F0CEA135518BF95EADC
:100710000C0F0CD050EA410618BF52EA4306D1D163
:1007200081EA030101F000414FF0000070BD50EA82
:10073000410606BF1046194652EA430619D094EA0C
:100740000C0F02D150EA013613D195EA0C0F05D1F6
:1007500052EA03361CBF104619460AD181EA03014A
:1007600001F0004141F0FE4141F470014FF0000002
:1007700070BD41F0FE4141F4780170BD70B54FF09D
:10078000FF0C4CF4E06C1CEA11541DBF1CEA13551D
:1007900094EA0C0F95EA0C0F00F0A7F8A4EB0504FF
:1007A00081EA030E52EA03354FEA013100F08880F6
:1007B0004FEA03334FF0805545EA131343EA1263BF
:1007C0004FEA022245EA111545EA10654FEA002674
:1007D0000EF000419D4208BF964244F1FD0404F52D
:1007E000407402D25B084FEA3202B61A65EB030589
:1007F0005B084FEA32024FF480104FF4002CB6EB46
:10080000020E75EB030E22BFB61A754640EA0C00C5
:100810005B084FEA3202B6EB020E75EB030E22BF05
:10082000B61A754640EA5C005B084FEA3202B6EB46
:10083000020E75EB030E22BFB61A754640EA9C0005
:100840005B084FEA3202B6EB020E75EB030E22BFD5
:10085000B61A754640EADC0055EA060E18D04FEA93
:10086000051545EA16754FEA06164FEAC30343EA33
:1008700052734FEAC2025FEA1C1CC0D111F4801F00
:100880000BD141EA00014FF000004FF0004CB6E7F9
:1008900011F4801F04BF01430020B4F1FD0C88BF98
:1008A000BCF5E06F3FF6AFAEB5EB030C04BFB6EBA3
:1008B000020C5FEA500C50F1000041EB045170BD96
:1008C0000EF0004E4EEA113114EB5C04C2BFD4EBC3
:1008D0000C0541EA045170BD41F480114FF0000E47
:1008E000013C90E645EA060E8DE60CEA135594EAC3
:1008F0000C0F08BF95EA0C0F3FF43BAF94EA0C0FC6
:100900000AD150EA01347FF434AF95EA0C0F7FF43A
:1009100025AF104619462CE795EA0C0F06D152EA8E
:1009200003353FF4FDAE1046194622E750EA410672
:1009300018BF52EA43067FF4C5AE50EA41047FF483
:100940000DAF52EA43057FF4EBAE12E74FF0FF3CE8
:1009500006E000BF4FF0010C02E000BF4FF0010CB9
:100960004DF804CD4FEA410C7FEA6C5C4FEA430C32
:1009700018BF7FEA6C5C1BD001B050EA410C0CBF81
:1009800052EA430C91EA030F02BF90EA020F0020E3
:10099000704710F1000F91EA030F58BF994208BF4A
:1009A00090422CBFD8176FEAE37040F00100704707
:1009B0004FEA410C7FEA6C5C02D150EA013C07D15E
:1009C0004FEA430C7FEA6C5CD6D152EA033CD3D0A9
:1009D0005DF8040B704700BF8446104662468C46A3
:1009E0001946634600E000BF01B5FFF7B7FF0028D6
:1009F00048BF10F1000F01BD4DF808EDFFF7F4FFFF
:100A00000CBF012000205DF808FB00BF4DF808ED89
:100A1000FFF7EAFF34BF012000205DF808FB00BFAC
:100A20004DF808EDFFF7E0FF94BF012000205DF8CE
:100A300008FB00BF4DF808EDFFF7CEFF94BF012083
:100A400000205DF808FB00BF4DF808EDFFF7C4FF7C
:100A500034BF012000205DF808FB00BF4FEA4102CF
:100A600012F5001215D211D56FF47873B3EB625200
:100A700012D94FEAC12343F0004343EA505311F027
:100A8000004F23FA02F018BF404270474FF00000B9
:100A9000704750EA013005D111F0004008BF6FF0F7
:100AA000004070474FF00000704700BF4A0011D26D
:100AB00012F5001211D20DD56FF47873B3EB6252B8
:100AC0000ED44FEAC12343F0004343EA505323FAC4
:100AD00002F070474FF00000704750EA013002D139
:100AE0004FF0FF3070474FF0000070474FEA41026F
:100AF000B2F1E04324BFB3F5001CDCF1FE5C0DD97C
:100B000001F0004C4FEAC0024CEA5070B2F1004FC5
:100B100040EB830008BF20F00100704711F0804FC8
:100B200021D113F13872BCBF01F00040704741F48D
:100B300080114FEA5252C2F11802C2F1200C10FA91
:100B40000CF320FA02F018BF40F001004FEAC12375
:100B50004FEAD32303FA0CFC40EA0C0023FA02F319
:100B60004FEA4303CCE77FEA625307D150EA0133EF
:100B70001EBF4FF0FE4040F44000704701F00040BF
:100B800040F0FE4040F40000704700BF53B94AB93E
:100B9000002908BF00281CBF4FF0FF314FF0FF3085
:100BA00000F00CB8ADF1080C6DE904CE0DF0F2FACE
:100BB000DDF804E0DDE9022304B07047704700BFB0
:100BC000034613F8012B002AFBD1181A013870478D
:100BD00001F0FF01102A2BDB10F0070F08D010F8EE
:100BE000013B013A8B422DD010F0070F42B3F6D1F2
:100BF000F0B441EA012141EA014122F007047FF00B
:100C000000070023F0E80256083C85EA010586EA61
:100C1000010685FA47F5A3FA87F586FA47F6A5FA9D
:100C200087F68EB9EED1F0BC01F0FF0102F00702A9
:100C300032B110F8013B013A83EA010313B1F8D154
:100C40000020704701387047002D06BF3546033835
:100C5000073815F0010F07D1013015F4807F02BF6E
:100C6000013015F4C03F0130F0BC0138704700BFBF
:100C70000348044B834202D0034B03B1184770472B
:100C80009C0100209C010020000000000548064B4C
:100C90001B1AD90F01EBA301491002D0034B03B17A
:100CA000184770479C0100209C01002000000000B4
:100CB00010B5064C237843B9FFF7DAFF044B13B1A4
:100CC0000448AFF300800123237010BDA001002071
:100CD0000000000060F4000808B5054B1BB1054991
:100CE0000548AFF30080BDE80840FFF7CFBF00BF65
:100CF00000000000A401002060F400081449154819
:100D00008A794B69825C9858C00603EB020C02D5C5
:100D10001868800600D4704704204872202098602C
:100D2000985810F4907FF6D1985820F0010010B434
:100D30000C689850DCF804106FF30F012143CCF8D5
:100D4000041099585DF8044B41F001019950704727
:100D5000BC01002078F40008704700BF704700BF56
:100D6000F0B4344D0469AC4228D1334D4FF0000C3F
:100D7000012B2C6185F807C01DD012B36B7A082BAC
:100D800019D0C66842690768EE606A6190F806C0CB
:100D900085F806C003792B71E36A04982F6023F469
:100DA000700303430129E36203D004291DD0022903
:100DB00016D008236B722048F0BC70470020F0BCAE
:100DC0007047AB7A082BF6D043796B71022903D1B7
:100DD000636843F08003636008231748AB72EBE756
:100DE000636843F020036360E3E7144BA16813F8E2
:100DF0000C30134841F44071A160D1188860CE6076
:100E000006EB470608690E61D05840F48020D050A8
:100E100048686FF30F0038434860D15841F0100123
:100E2000D150D15841F00401D150D15841F00101C5
:100E3000D150BEE700200140BC01002078F400083A
:100E40004C20014003699A68D20703D49A6842F0A3
:100E500001029A60704700BF036953B1012910B5C0
:100E6000044627D00429104605D0022948D0012085
:100E700010BD012070479A6812F0405FF7D101223F
:100E800062729A6842F080429A60637A042BFCD1C5
:100E90002849A3796269CB5CE168D35822681B03B7
:100EA0004FEA420258BF89180DF0ADFC0823637267
:100EB000002010BD9A6812F0405FD8D1427A022A11
:100EC00008D0427A042A05D0427A082A02D01A6849
:100ED0009107CCD51A68920604D56FF02001102234
:100EE00019606272627A102AC1D0627A082A0CBF35
:100EF0000122202262729A6842F080429A60D7E70B
:100F0000637A202B05D0637A042B02D0637A102BEE
:100F1000ADD10849A3796269CB5C08216172D358CD
:100F20002268E16852001B0358BF89180DF06BFC62
:100F3000BEE700BF78F40008036910B49C68E407BA
:100F400003D59C6824F001049C605C68640603D5AA
:100F50005C6824F040045C605C68640103D55C68F4
:100F600024F080645C60A2B1012903D0022936D04C
:100F700004291AD000224021827102714172D96A7B
:100F8000C26021F4700102604261D9625DF8044BD5
:100F900070474024022942718472F7D15A685DF883
:100FA000044B22F080025A60704781790E4C4269EE
:100FB000615C545824F001045450545824F0040443
:100FC0005450545824F0100454500A4451686FF39C
:100FD0000F0151609A6822F440729A60CAE75A6819
:100FE00022F020025A60C5E778F400082DE9F04F9E
:100FF00087B0164602939DF844300193BDF85030F7
:101000009DF84820BDF84C7003938B46002900F0F2
:10101000A181AE4B05461B784ABB0199002900F01F
:10102000EF80DFF8B0A2DFF8B092DFF8A482039679
:101030009646541C012BA95CA4B200F09C80022BA4
:1010400000F0878063B998F80020039EB05C884266
:1010500000F0A38032788A4200F0CE8088F8003019
:1010600022469345E5D8704607B0BDE8F08F4FF0B3
:10107000000CCDE9046CDFF85C82DFF85CA2DFF8DD
:10108000509211E0002B4DD199F80010049E705C35
:1010900090423FD03178891AB1FA81F14909A446CA
:1010A00089F80010E3452FD90CF10104012B15F844
:1010B0000C20A4B238D0022BE4D1B8F80010159857
:1010C000109E42549AF8000016F800E0013189B2EF
:1010D0009645A8F8001076D03078904214BF0020D2
:1010E00001208AF80000039A8A421BD2891A8142A1
:1010F00018D0774A00231370744A8AF80030E34509
:101100001370A8F80030CFD8DDF814E0704607B0AF
:10111000BDE8F08F029A0131C9B28A4200F0C9805D
:1011200089F80010A446BDE7B8F800108F4205D931
:1011300015984254013189B2A8F800108F42F1D1BC
:10114000019B002B00F0F180604A0223A44613703B
:10115000A8E799F80000109E16F800C08C4500F032
:10116000BD805C495A4800230B805849037089F8B8
:1011700000300B7075E7BAF80020974205D9159832
:101180008154013292B2AAF8002097427FF468AFEE
:101190004E49022322460B7063E702990132D2B214
:1011A000914202D088F800205AE74B4A88F8003074
:1011B0001370484A13802246002F40F0EE804349C6
:1011C00002230B704DE7019A0130C0B290428AF8B9
:1011D000000088D1179B8A1A92B21A80DDE9151097
:1011E0000DF011FB3A4A00231370384A8AF8003098
:1011F0001370A8F80030A8E0012288F800202FE73B
:101200000A46541C012B8E46DFF8C8A0DFF8C880C0
:10121000DFF8BC90A95C0196A4B229D0022B0FD0B4
:1012200063B999F800200198805C884274D0019AD3
:1012300012788A4200F0938089F8003022460FE04D
:1012400098F80000109E365C8E4200F08E80214996
:101250001F4800230B801D49037088F800300B7075
:101260005A45BFF400AF541C012BA95CA4B2D5D1E0
:10127000BAF80020BA4205D215988154013292B2D0
:10128000AAF800209742D9D1179BDDE915101F80DD
:101290003A460DF0B8FA0E4A0F49002313700B4A74
:1012A0000B70AAF800301370224600234FF0010E95
:1012B000D6E7094A89F800301370064AA44613801D
:1012C000002F4ED0014A01231370EBE6DC01002011
:1012D000DB010020D8010020DA0100200199421C26
:1012E000D2B2914289F800207FF4BAAE354B1599FD
:1012F0001A88179B16981A800DF085FA314B3248E0
:1013000000211980314B01701970224689F80010B4
:101310000B464FF0010EA4E602990132D2B28A4286
:101320003FD089F8002022469AE7179B3A461F8053
:10133000DDE915100DF067FA244B019A1A70244B61
:10134000A8F800201A70204B1A700122A44600232E
:101350000592A7E68E46704607B0BDE8F08F0122E1
:10136000DFE71A4A022313709CE60130C6B288F800
:101370000060002E7FF462AF124B15991A88179BFC
:1013800016981A800DF03FFA0E4B88F800601E8008
:101390000E4B1E700C4B1E7086E70C4901230B7020
:1013A0005FE60B4A89F800301370064A1380224624
:1013B0001FB9064902230B7052E7044901230B7041
:1013C0004EE700BFD8010020DB010020DC01002037
:1013D000DA01002038B5037B013303F00103037306
:1013E000837B012B0446154613D0A368227B6968D2
:1013F0004FF4B86000FB02306A890DF004FA012353
:101400002374237BDBB263732846BDE8384006F0C3
:10141000FBB8427B037B9A42E7D1437B013303F065
:1014200001030373E1E700BF08B5034804F018F8AF
:10143000BDE8084003F05AB81C1F0020F0B583B087
:101440000546002408460F4616460194FFF7B8FBF0
:10145000F8B12346214622460DF1040C0CE01CF89D
:1014600001400133DBB204EB840402EB44029842F6
:101470000CF801201A460BD9BC5C2E2CA4F13002CA
:10148000EDD10133DBB201319842C9B21A46F3D82B
:101490000198009046B3364B1B78D3B90AF0CAFDC9
:1014A0000746002861D06B1C28D1324CB2B2694685
:1014B00038460AF06BFD22782F4B02EB420103EB1A
:1014C000C100C90001325D5046602270476103B01F
:1014D000F0BD2A480368AB42E0D1264A4660137843
:1014E0000133137003B0F0BD224B1B786BBB0AF0C5
:1014F000A1FD0746002838D06A1C06D02049AAB2B0
:1015000038460AF0C1FB002ECFD1194E1B4C327861
:101510001C4902EB420204EBC20238460AF078FD95
:101520003378194803EB430204EBC201D200A55003
:101530004FF4386202FB0302002048600133084682
:101540004F6133708A6003B0F0BD0B480368AB4253
:10155000CDD107490C4A0B784FF4386404FB0322C1
:10156000013382600B7003B0F0BD0020BAE700BF0A
:10157000DE010020DD010020600D0020780D00203C
:101580001C130108D5130008E001002010B370B54A
:101590000E4604461146ABB90F4B93F84430022B6C
:1015A00016D0012289B2362006F09CF8054678B1A3
:1015B00060696E6029460AF0A1FC284606F024F80E
:1015C000002070BD044A92F84430022BFBD0E8E7BB
:1015D000012070BD012070471C1F0020E0B110B534
:1015E000044623B9037C012B04D0012010BD237CC9
:1015F000002BFCD072B60123A373A36894F80DC02E
:1016000008464FF4B86101FB0C310DF0FCF80020E6
:10161000A073207462B610BD01207047FFF70EBFA3
:10162000FFF7B4BF08B5FFF7D9FFC0B208BD00BFD0
:10163000704700BFCB0703D50368DA6852064DD563
:101640008B0703D50368DA68920742D54B0703D5A9
:101650000368DA68520737D50B0703D50368DA68E1
:1016600012072CD5CB0603D50368DA68D20621D53C
:101670008B0603D50368DA68D20716D54B0603D567
:101680000368DA6812060BD5090603D50368DA6821
:10169000920600D57047DA6842F02002DA6070479F
:1016A000DA6842F08002DA60EEE7DA6842F00102BE
:1016B000DA60E3E7DA6842F01002DA60D8E7DA6865
:1016C00042F00802DA60CDE7DA6842F00402DA603C
:1016D000C2E7DA6842F00202DA60B7E7DA6842F09D
:1016E0004002DA60ACE700BFCB0703D50368DA68D5
:1016F00052064CD48B0703D50368DA68920741D4AD
:101700004B0703D50368DA68520736D40B0703D5B5
:101710000368DA6812072BD4CB0603D50368DA68AE
:10172000D20620D48B0603D50368DA68D20715D514
:101730004B0603D50368DA6812060AD4090607D5F2
:101740000368DA68920603D5DA6822F02002DA60CC
:101750007047DA6822F08002DA60EFE7DA6822F098
:101760000102DA60E4E7DA6822F01002DA60D9E711
:10177000DA6822F00802DA60CEE7DA6822F00402C2
:10178000DA60C3E7DA6822F00202DA60B8E7DA6802
:1017900022F04002DA60ADE70229036814D00D4A56
:1017A000934204D002F58062934200D0704703292F
:1017B00005D00429FAD11A6A42F001021A621A6AA3
:1017C00042F004021A6270471A6A42F001021A6279
:1017D000704700BF000001400229036814D00D4A81
:1017E000934204D002F58062934200D070470329EF
:1017F00005D00429FAD11A6A22F001021A621A6A83
:1018000022F004021A6270471A6A22F001021A6278
:10181000704700BF000001400229036814D00D4A40
:10182000934204D002F58062934200D070470329AE
:1018300005D00429FAD11A6A42F010021A621A6A13
:1018400042F040021A6270471A6A42F010021A62AD
:10185000704700BF000001400229036814D00D4A00
:10186000934204D002F58062934200D0704703296E
:1018700005D00429FAD11A6A22F010021A621A6AF3
:1018800022F040021A6270471A6A22F010021A62AD
:10189000704700BF000001400229036814D00D4AC0
:1018A000934204D002F58062934200D0704703292E
:1018B00005D00429FAD11A6A42F480721A621A6AAF
:1018C00042F480621A6270471A6A42F480721A62A5
:1018D000704700BF000001400229036814D00D4A80
:1018E000934204D002F58062934200D070470329EE
:1018F00005D00429FAD11A6A22F480721A621A6A8F
:1019000022F480621A6270471A6A22F480721A62A4
:10191000704700BF00000140022904D10268136A29
:1019200043F4805313627047022904D10268136A9A
:1019300023F48053136270470368B3F1804F20D0C3
:10194000144A934214D002F5806293421ED002F5ED
:10195000A03293421CD0A2F59632934213D11A685A
:101960000D4812F06002036008D11B6802717047D5
:101970000A481A68036012F06002F6D00122027170
:1019800070470748F5E700221360FFDE0548F0E7DF
:101990000548EEE700040040900D0020340F0020C1
:1019A000C00F0020A80E00201C0E0020B1F5803FC3
:1019B00009D30368B3F1804F05D004484FF6FF7296
:1019C000834218BF11460846704700BF000C004014
:1019D0002DE9F04FA3B0504A504C019436233821E2
:1019E0000F9411941394DFF840A1DFF840B10392F3
:1019F0000592079209920B920D928DF808108DF8BE
:101A000010308DF818308DF820308DF828308DF892
:101A100030308DF838308DF840108DF848108DF842
:101A2000501015AC451E00F109090DF1040809AF6D
:101A300011AE1CE00522214658460CF05EFE00283F
:101A400066D03748052221460CF057FE002861D0A9
:101A50003448052221460CF050FE00280CBF02231A
:101A6000012305F8013F4D4504F105044DD09DF8D3
:101A700010308DF85D309DF818308DF862309DF88B
:101A800020308DF867309DF830308DF871309DF83A
:101A900038308DF876309DF840308DF87B3098E8FE
:101AA000030015900398CDF859000598CDF85E0015
:101AB00007988DF85810CDF8630097E803001A9046
:101AC0000B98CDF86D000D98CDF872000F988DF839
:101AD0006C10CDF8770096E803001F9013989DF8DE
:101AE00050308DF88010CDF88100052221465046F7
:101AF0008DF885300CF001FE00289BD1082305F8F5
:101B0000013F4D4504F10504B1D123B0BDE8F08F8C
:101B10000423A6E70123A4E7696E743175696E7426
:101B2000241201081C120108341201082C120108A9
:101B30002DE9F04F2DED0E8B594C94F8F536E7B0AA
:101B400013B1002384F8F53635AD00230822294669
:101B50009FED510BD4F8F806FFF764FD95E80300FC
:101B600094F8C53637AA82E8030013B1002384F83D
:101B7000C5364C4805900D200DF1BE058DF8B90015
:101B800010460DF1BA02062101230795002633AD58
:101B900000920A22CDE903118DF8BA20CDE9013671
:101BA00006950DF1B9020821FFF720FA002862D04E
:101BB000BDF8BE00052805D8C0F10602314628440C
:101BC0000CF0ABFD9DF9CC300E931A46002A9DF81F
:101BD000CC30C0F21C859DF9CD3010931A46002AF6
:101BE0009DF8CD30C0F208859DF9CE3027931A4676
:101BF000002A9DF8CE30C0F2ED849DF9CF209DF8EB
:101C0000CF301F92002AC0F2DA840E9A8DF8B930D4
:101C1000002362F30703109A62F30F23279A62F3FB
:101C200017431F9A62F31F63C4F8CE369DF8D12084
:101C30009DF8D03043EA02230D93A4F8D236002356
:101C400084F8D436184D94F8163E0D9A1C936B8A7E
:101C50001340ADF8BE30AB8A13402193ADF8C030CD
:101C600033B394F9EC3D012B104B00F06E871D93BC
:101C700000232B935BE094F9CE360E9394F9CF3684
:101C8000109394F9D036279394F9D1361F93B4F872
:101C9000D2360D93D6E700BF000000000000000020
:101CA0005010002016170020000000200C1E0020FD
:101CB000CD4BD5ED2F7A93ED007A1D93B4EEE77AF4
:101CC000F1EE10FAC0F26C8494F8143E84F8013EF0
:101CD0008DF84A318DF8B930D4F8023EC4F8EF3DA2
:101CE0004E93D4F8063EC4F8F33D4F93D4F80A3E21
:101CF000C4F8F73D5093D4F80E3EC4F8FB3D519321
:101D00004EA8B4F8123EA4F8FF3DADF848314EAEEF
:101D100001F0D0FC01232B930FCEB44FC4F8020E78
:101D2000FB6033883B82B3787960BA60BB74D4F8C7
:101D3000E40630AA0421FFF78FF8637A0BB1002381
:101D40006372DFF8B4824FF4C762A8F5E4614046DD
:101D50000CF059FDBDF8C000FEF76CFB02460B46C7
:101D6000CDE91223A8F1E00AD4E90E23FEF726FA02
:101D70005AE9026718ED387BCDE90A013946304649
:101D80008DED087BFEF76AFE0022834600F1FF39E5
:101D90000023DDE90801FEF72FFE002800F0DA83BA
:101DA00004EBCB0BDBE90E23DDE90A01FEF706FAB3
:101DB000CDE914019DED127B09F1EC0904EBC90991
:101DC00089ED007B82A3D3E9002330463946FEF734
:101DD00013FE002840F0A983854B30463946002287
:101DE000FEF7ECF980468946DDE908010022002370
:101DF000FEF702FE002800F0B283DDE914017D4BFE
:101E00000022FEF7BBFC06460F467B499DED0A7B90
:101E10004FF4C762A1F5E46084ED0E7B0CF0F3FC97
:101E20004AE90289DDE90889002200234046494643
:101E3000FEF70AFE002800F059866D4B40464946E1
:101E40000022FEF7B9F9CAE90001DFF8B8A153464C
:101E50000433169353460833179353460C331893A1
:101E60005346103319935346143330463946AAF17A
:101E7000280BDAED008A1A93FEF738FEDBED007AC4
:101E80009AED019ADAED029A9AED03AA9AED04BA54
:101E9000DAED05AAF4EE678AF1EE10FA08EE100A00
:101EA00000F00883AAF124032293AAF120032393CC
:101EB000AAF11C032593AAF118032693AAF114038F
:101EC0002493AAF11003209394F80537CDED588A96
:101ED0008DED599ACDED5A9A8DED5BAA8DED5CBAD8
:101EE000CDED5DAA8DED5E8A002B40F0558358AF95
:101EF0000FCF5FAE0FC697E807009FED370B86E860
:101F000007000123D4F808075FA91C22FFF788FB0C
:101F1000BDF8BE301E93002B00F0248394F9ED3DF4
:101F2000012B364B00F018861B9380230021CDE94E
:101F30002931012204232893089295F8FD30003BB3
:101F400018BF0123934294F8153E34BF00220122AA
:101F5000003B18BF01239A421292149300F2BE85EF
:101F6000274B0A9395F90C310E9A934280F2AA8579
:101F7000D31A03F307034FFA83F84046FEF76AFAD1
:101F8000064621F0004795F90E31109A934280F2EF
:101F90008D85D31A03F307034FFA83F94846FEF7FA
:101FA00059FA024621F0004330463946FEF706F959
:101FB0000BA3D3E9002395F90F7195F91061FEF792
:101FC00025FD002840F06C851EE000BFAFF30080C7
:101FD0000000000000E068409A9999999999B93FEA
:101FE0008DEDB5A0F7C6B03E0C1E0020521E00209D
:101FF0000000F03F00006940B0170020101E0020D4
:10200000141E0020181E002006FB09F007FB080024
:10201000FEF720FA9FEDD61B41EC100B0BF096FF5C
:102020009FEDD51B0BF06AFF51EC100BFEF716FD70
:1020300095F9123147B295F9110113FB09F308FB29
:102040000030FEF707FA9FEDCA1B41EC100B0BF0B6
:102050007DFF9FEDC91B0BF051FF51EC100BFEF7FC
:10206000FDFC43B20E9395F9143195F9130113FB5E
:1020700009F308FB0030FEF7EDF99FEDBD1B41ECC5
:10208000100B0BF063FF9FEDBC1B0BF037FF51EC07
:10209000100BFEF7E3FC95F9163146B295F91501E0
:1020A00013FB09F308FB0030FEF7D4F99FEDB01BDA
:1020B00041EC100B0BF04AFF9FEDAF1B0BF01EFF26
:1020C00051EC100BFEF7CAFC43B2129A14998A42E3
:1020D0000FD80A9AD5ED3A7A92ED007AB4EEE77A03
:1020E000F1EE10FA40F1688394F8182E002A00F0FF
:1020F000638395ED100B0BF07FFFB0EE407AF0EEAE
:10210000607A95ED120B57EC176B0BF075FFB0EE84
:10211000407AF0EE607A95ED140B8DED107B0BF0AC
:102120006BFFB0EE407AF0EE607A95ED160B59EC4D
:10213000178B0BF061FF304639468DED0E0BFEF725
:102140008DFC002660F30706DDE91001FEF786FC32
:10215000494660F30F264046FEF780FC60F31746C1
:10216000DDE90E01FEF77AFC95ED180B60F31F66B2
:1021700031960BF041FF51EC100BFEF76FFC95ED23
:102180001A0B8DF8C8000BF037FF51EC100BFEF75F
:1021900065FC43B28DF8C930089B002B40F0B88332
:1021A000B5F898309DF9C4709DF9C5609DF9C600D9
:1021B0009DF9C7109DF9C8209DF9C9C017FB03F709
:1021C00016FB03F610FB03F011FB03F112FB03F205
:1021D0001CFB03FCB5F89C301F441E4418441944F2
:1021E0001A446344A4F8EA3D0123A4F8E07DA4F86E
:1021F000E26DA4F8E40DA4F8E61DA4F8E82D84F837
:10220000193EB4F8E81DD4F85807FFF7CFFBD4F80F
:102210005837B4F8EA1D1B685A6B904218BF5863D0
:10222000D4F84807FFF7C2FBD4F84837B4F8E61DE6
:102230001B685A6B904218BF5863D4F82807FFF701
:10224000B5FB0346D4F828070268D16B8B4218BF50
:10225000D363B4F8E41DFFF7A9FBD4F82837B4F82A
:10226000E01D1B681A6C904218BF1864D4F8180758
:10227000FFF79CFB0346D4F818070268516B8B42AA
:1022800018BF5363B4F8E21DFFF790FBD4F818377A
:102290000D991B689A6B9042EA8A18BF98632B8B42
:1022A00011425BE9026703EA010340F0F483002B6B
:1022B00040F0DC83CDE9086732463B46D5E90001B2
:1022C000FEF7AEFB18B195ED0C7B8DED087BD5E9E3
:1022D000242330463946FEF727F9FEF7E7FB86B29E
:1022E0003146D4F83807FFF761FB0346D4F83807C6
:1022F0000268516B8B4218BF53633146FFF756FBA0
:102300000346D4F838070268916B8B4218BF936379
:102310003146FFF74BFB0346D4F838070268D16B10
:102320008B4218BFD3633146FFF740FBD4F83837F0
:1023300029991B681A6C904218BF18642B9B289A25
:102340005B4203F0780313430D4A91612A9991612E
:10235000C2F8183C1B0483F4F803C2F8183C94F844
:1023600091367BB1002384F891360BE0AFF3008007
:10237000000000000000594000000000000059C0AB
:1023800000040240DFF824E4D4F8EF0DDEF8041076
:10239000DEF80820DEF80C300DF5A67CACE80F0066
:1023A0001123CDE9033300260DF1C2030793CDE9D4
:1023B0000166AEF25D7305933FAF0DF1BB03069767
:1023C0000093BEF81030ACF800309EF812308CF854
:1023D00002304AF6AA23ADF8BC302FAA02231321FB
:1023E00053A88DF8BB60FEF701FE002800F0BF8205
:1023F000BDF8C2804FF6FF73984500F0CD8308F119
:1024000001039BB2112B40F20D8108F1FF321646F9
:10241000394644A80CF0F7F90122B91949A80CF083
:10242000F2F9002E00F0328544AAB01800234FF6CE
:10243000FF7112F801CB63448B4228BF0B468242E6
:102440009BB2F6D1DBB2FF2B9DF8242128BFFF23DE
:102450009A4240F0F780B819012200210CF05DF992
:102460009DF8FC300D938DF8B93002260EE012F87D
:102470009C7C12F89D8CFFF7ABFA9DF8E530334455
:102480009EB2032EADF8C26000F28F8339A8FFF729
:102490009FFA06F5CC730DEB03029DF8E530013B86
:1024A0003344B34239A8E2DA9DF8FD709DF8FC8010
:1024B00039A8E0E75AED097AF4EE497AAAF1240343
:1024C000F1EE10FA22937FF4F0AC5AED087AF4EEB4
:1024D000697AAAF12003F1EE10FA239340F04383C6
:1024E0005AED077AF4EE4A7AAAF11C03F1EE10FADB
:1024F00025937FF4E0AC5AED067AF4EE4B7AAAF11C
:102500001803F1EE10FA269340F0AB845AED057AE9
:10251000F4EE6A7AAAF11403F1EE10FA249300F0B3
:10252000A884AAF110032093CEE49D4BD3E90001C7
:102530001E4676E90223FDF741FE4645C6E9000145
:10254000F7D19FED957BDFF868928DED0A7B4FF018
:10255000000849E49FED907B8DED147B2AE4002672
:10256000002752E48F4BD5ED387A93ED007A1B9318
:10257000B4EEE77AF1EE10FA18D594F8172E003A77
:1025800018BF0122D30583F400032A9393002893F4
:10259000D30108922993D0E4002384F80537A6E4F8
:1025A0001C9B002B3FF490ABFFF762BB4FF4000382
:1025B0002A931E9B0893CDE928331A46BDE4C3F540
:1025C0008073180600F1D482DBB25A4252B21F92D5
:1025D000FFF71BBBC3F580731D069DF9CF201F922B
:1025E0005ABF5B425BB26FF07E03002A27939DF8CF
:1025F000CF30BFF60AABE2E7C3F580731E065ABFC1
:102600005B425BB26FF07E031093FFF7EDBAC3F548
:1026100080731F065ABF5B425BB26FF07E030E935E
:10262000FFF7D9BA3146C8F1110207EB08000CF0E8
:1026300074F8B8F1000F40F0A1829DF82431002B0E
:102640003FF40EAF002384F8A636C4F8A836C4F8C9
:10265000AC36C4F8B036C4F8B436012384F8B836C2
:102660001A9B9AED00BAD3ED008A169BD3ED00AA0F
:10267000179B93ED00AA189BD3ED009A199B93ED3D
:10268000009AF0EE68CAB0EE49DAF0EE69DAB0EE20
:102690004AEAF0EE6AEAB0EE4BCA1D9B219AD3EDEE
:1026A00000BA002A00F05481DFED3F7A7BEEA7BA32
:1026B000C3ED00BA002384F8EC3D95F8FB301C9381
:1026C0001C9B84F8163E229B8AED00BAC3ED00EAFB
:1026D000239B8BED00CA83ED00EA259BC3ED00DA56
:1026E000269B83ED00DA249BC3ED00CA209B83ED7B
:1026F000008A169BC3ED00AA179B83ED00AA189BC6
:10270000C3ED009A199B83ED009A1A9BC3ED008AD2
:102710001B9B93ED008A1E9B002B00F00F81DFEDC9
:10272000227A78EE277A00231B9A84F8ED3DBDF8D3
:10273000BE30C2ED007A1BB195F8FA3084F8173E2E
:102740000A9A129B92ED008A149A84F8153E9342DD
:1027500040F29781DFED147A95F8FC3084F8183E4A
:1027600078EE277A002384F8EE3D0A9BD5E9020132
:10277000C3ED007ADDE90823FEF75CF918B195EDA9
:102780000E7B8DED087B9DED087B0BED027B67B02A
:10279000BDEC0E8BBDE8F08F0000000000000000D3
:1027A000E01D0020101E0020000000003F1E002041
:1027B0000000F03F0000003595F908211F998A427A
:1027C000C0F2A48195F907218A42C8BFA1EB020893
:1027D0002A8A0D99C6BF08F307085FFA88F84FF0F8
:1027E0000008114200F09C8195F90231279A93422A
:1027F00004DB95F90131934240F32F83D31A03F39D
:1028000007035AB208EE902AF8EEE88ADBB295F890
:10281000032112FB03F252B20E9295F8042112FB2F
:1028200003F35BB209EE103AF0EE68AA95F80931AD
:1028300095ED280A13FB08F35BB207EE903AF8EE29
:10284000E77AB8EEC99A27EE800A0BF059FC95F8A2
:102850000A3195ED297A13FB08F35BB207EE903A43
:10286000B0EE40AAB8EEE70ABDEECAAA20EE070A0B
:102870000BF046FCD5ED2A7AF0EE409A28EEA70A36
:102880000BF03EFCDDED0E7A95ED2B7AF8EEE77A53
:10289000F0EE408A27EE870A0BF032FCFDEEE99A53
:1028A0001AEE102A002362F30703FDEEE88A19EE00
:1028B000902AF0EE407AFDEEE77A62F30F2318EEED
:1028C000902A95ED2C0A62F3174317EE902A2AEE10
:1028D000800A62F31F6331930BF012FCF0EE407A32
:1028E000FDEEE77A95ED2D0A17EE903A29EE000AF3
:1028F0008DF8C8300BF004FCFDEEC07ACDED0E7AF9
:102900009DF938308DF8C930089B002B3FF448AC56
:1029100094F8193E002B3FF474ACB5F8F82000236E
:1029200062F30F0362F31F43C4F8E03DC4F8E43DD3
:10293000C4F8E83D002384F8193E62E4D5E91E019D
:10294000FEF7D4F807EE900A012377EE887AEBE6DB
:10295000D5E91C01FEF7CAF807EE900A1D9B77EE39
:10296000AB7AC3ED007A012384F8EC3DA8E694F835
:10297000B776B4F9A836B4F9AAC6B4F9AC06B4F976
:10298000AE16B4F9B026B4F9B26694F8B8E6002FE2
:102990003FF466AEBEF1000F3FF462AE07EE906A00
:1029A000F8EEE75A07EE903A169B9AED00CAD3ED7F
:1029B00000EA179B93ED00EA189BD3ED00DA199B10
:1029C00093ED00DA1A9BD3ED00CAB5F9F63008EEA4
:1029D000903AB5F9EC300BEE103AB5F9EE30B8EEAE
:1029E000E76A0AEE903A07EE90CAB5F9F030F8EED1
:1029F000E76A0AEE103A07EE900AB5F9F230B8EE3F
:102A0000E77A09EE903A07EE901AB5F9F430F8EE4D
:102A1000E74A09EE103A07EE902AF8EEE88AB8EE97
:102A2000E75AB8EECBBA5FED9D7AF8EEEAAAB8EEB7
:102A3000CAAAF8EEE99AB8EEC99A68EEA78A2BEE10
:102A400027BA6AEEA7AA2AEE27AA69EEA79A29EE64
:102A5000279A68EEA58A2BEE06BA6AEEA6AA2AEE97
:102A600007AA69EEA49A29EE059A16E6D5E90801A7
:102A700032463B46FDF7A2FBCDE9080102460B4674
:102A80001CE4D5E92001FEF731F807EE900A012396
:102A900077EE887A67E6002BE8D1D5E90A01E7E707
:102AA00000270E973E463B46FFF70FBB95F90D31C9
:102AB00093421FDDA2EB030909F307094FFA89F9D5
:102AC000FFF76CBA95F90B31934219DDA2EB0308BD
:102AD00008F307084FFA88F8FFF74FBA94F9EE3D6C
:102AE000012B8F4B51D00A93FFF73CBA00200021F5
:102AF000FFF7A9B94FF0000900220023FFF754BAED
:102B00004FF0000800260027FFF73DBA8A1A02F3AB
:102B100007020D995FFA82F82A8A11427FF464AEA7
:102B200095F8052107EE907A12FB06F252B2F8EE04
:102B3000E78A07EE902A95F8062112FB03F35BB2B1
:102B4000F8EEE7AA09EE103A70E61A461D93D5F89A
:102B5000B8301360FFF78CB81A461B93D5F8DC30F9
:102B60001360FFF7E2B9AAF11C032593FFF7A3B99D
:102B70006FF07E027F231F92FFF747B808F1FF3600
:102B80003246002E3FF448AC42E41A460A93D5F888
:102B9000E4301360FFF7E6B94FF6FE72394644A8F9
:102BA0000BF031FE4FF6FE7636E40E97CDF84080FE
:102BB00004260DE012F89C7C12F89D8CFEF708FFAD
:102BC0009DF8E63033449EB2052EADF8C26013D8AE
:102BD00039A8FEF7FDFE06F5CC730DEB03029DF858
:102BE000E630013B3344B34239A8E3DA9DF8FD7087
:102BF0009DF8FC8039A8E1E71F97CDF89C80062658
:102C00000BE012F89C7C12F89D8CFEF7E1FE9DF81B
:102C1000F33033449EB2072E13D83CA8FEF7D8FEFB
:102C200006F5CC730DEB03029DF8F330013B334402
:102C3000B3423CA8E5DA9DF8FD709DF8FC803CA805
:102C4000E3E7CDE92C7808260BE012F89C7C12F81B
:102C50009D8CFEF7BDFE9DF8F43033449EB2092EE4
:102C600013D83CA8FEF7B4FE06F5CC730DEB0302B7
:102C70009DF8F430013B3344B3423CA8E5DA9DF8BB
:102C8000FD709DF8FC803CA8E3E7CDE92A780A278F
:102C90000BE012F89C8C12F89D6CFEF799FE9DF8E3
:102CA000F5303B449FB20B2F13D83CA8FEF790FEA3
:102CB00007F5CC730DEB03029DF8F530013B3B4467
:102CC000BB423CA8E5DA9DF8FD809DF8FC603CA87D
:102CD000E3E7CDF8A4804FF00C080DE012F89C7CDF
:102CE00012F89D9CFEF774FE9DF8F63043441FFADF
:102CF00083F8B8F10D0F17D83CA8FEF769FE08F568
:102D0000CC730DEB03029DF8F630013B4344434581
:102D10003CA8E3DA9DF8FD709DF8FC903CA8E1E743
:102D2000141E002000000000CDF8A09039A8FEF786
:102D30004FFE9DF8EB3003F10D010E3399424FF039
:102D4000000202D80D2918BF0D2202F5CC730DEB3D
:102D5000030239A812F89C3C8DF8BA30FEF738FE11
:102D60009DF8EB300E330E2BADF8C230DED039A813
:102D7000FEF72EFE9DF8EC3003F10E010F33994261
:102D80004FF0000202D80E2918BF0E2202F5CC73B4
:102D90000DEB030239A812F89C9CFEF719FE9DF872
:102DA000EC300F330F2BADF8C230E0D039A8FEF76E
:102DB0000FFE9DF8ED3003F10F01103399424FF0F3
:102DC000000202D80F2918BF0F2202F5CC730DEBB9
:102DD000030239A812F89C8CFEF7FAFD9DF8ED303D
:102DE0001033102BADF8C230E0D00E9A109B1F9913
:102DF00084F8B59643EA0223279A84F8B68642EA15
:102E0000012CDDE92C1242EA0120DDE92A1242EA16
:102E10000121299A46EA0222289E46EA07270D9EAA
:102E200084F8A6663EB29DF8BA7084F8B4761BB2F8
:102E30000FFA8CFC00B209B212B20127A4F8A8362E
:102E4000A4F8AAC6A4F8AC06A4F8AE16A4F8B02656
:102E5000A4F8B266A4F8B776A0E55FED4E8A002329
:102E6000D5E4AAF114032493AAF110032093FFF7E9
:102E70002BB85AED047AF4EE487AAAF11003F1EE79
:102E800010FA20933FF444A8FFF71EB89DF82431B0
:102E9000002B7FF4D7ABFFF7DEBA00BF00000000C5
:102EA0002DE9F043D64CD74E04F6A459D6F8C030DD
:102EB000C9F8003004F6A85904F6BC52C9F800302D
:102EC00004F6AC59D6F8B810C9F8003004F55B69BF
:102ED0001160C9F8003004F6B45904F55A61C9F814
:102EE000003004F6B85996ED317AD6ED327A0B609F
:102EF000C9F8003004F6C85383ED007A04F6CC53C9
:102F0000C3ED007A04F55D63D6F8CC80C3F8008089
:102F100004F6D453D6F8D0E0C3F800E004F6D85352
:102F2000D6F8D4C0B57EC3F800C096F8FE00D6F837
:102F3000D87004F6DC53002265F307021F6060F3CB
:102F40000F2204F55C6396F8FF00D6F8DC501D6094
:102F500060F3174240F2022396F80001A4F8EC3D1A
:102F600004F6C45360F31F624FF00208D6F8E40081
:102F7000186084F8EE8DC4F8152ED6E9222306F5E4
:102F80008C7541E902230FCDC4F80E3E2B88C4F89E
:102F9000020EADB0C4F8061EC4F80A2E96F817113A
:102FA000A4F8123E1322AB7884F8143E04F6EF50D6
:102FB0000BF0B3FB944B0FCB0DF1140C8CE80F000E
:102FC00046F2B312002501276146104684F8FC56EC
:102FD000C4F80077FEF722FBB6F8F8108B4AC4F865
:102FE00008072B4661F30F0361F31F4307CAC4F8B8
:102FF000E03DC4F8E43DC4F8E83D02AB83E80700D7
:1030000019462A4646F2B210A4F8047784F8EC5622
:10301000C4F8F076FEF702FB04F5DD630C937C4BFD
:103020000D9303F5A2330E934FF48073ADF83C304B
:103030000423009519463A46C4F8F806A4F8F47635
:1030400084F8BC56C4F8C076C4F8C656C4F8CA564C
:10305000C4F8CE56A4F8D25684F8D456A4F8C47650
:1030600084F8D85684F8E056C4F8DC7609A88DF8C0
:103070002A500997ADF82870FDF772FEC4F8E406EF
:10308000FDF7E0FED4F8E4063946FDF767FE9FED54
:10309000587B04F5D06383ED007B84ED0E7B9FEDC0
:1030A000567B4FF4C762294604F1400003ED027BD2
:1030B000C4E90B7784F8E0762570676027810BF010
:1030C0002CFB544B099309A884F84C5784F85457A7
:1030D000C4F85077ADF82850FEF72EFC2946C4F806
:1030E0005807FEF7A7FAD4F858074146FEF754FBF5
:1030F000D4F858371B689A6802F00702062A40F095
:10310000E5800123444A84F85437002509A8C4F80F
:103110004037099284F83C5784F84457ADF828505A
:10312000FEF70AFC2946C4F84807FEF783FAD4F8EC
:1031300048070221FEF730FBD4F848371B689A682D
:1031400002F00702062A40F010810123334A84F876
:103150004437002509A8C4F82037099284F81C5781
:1031600084F82457ADF82850FEF7E6FB2946C4F84A
:103170002807FEF75FFAD4F828070221FEF78CFB38
:10318000D4F828070221FEF7C7FBD4F828371B68BC
:103190009A6802F00702062A40F0BF800123204A05
:1031A00084F82437002509A8C4F81037099284F858
:1031B0000C5784F81457ADF82850FEF7BDFB29468C
:1031C000C4F81807FEF736FAD4F818070221FEF7FC
:1031D000E3FAD4F818070221FEF71EFBD4F81837DB
:1031E0001B689A6802F00702062A40F0AA8019E0DC
:1031F0000000000000000000000000000000F03FA0
:10320000501000200000002080F4000890F4000816
:103210000020014000480140001C00400004004024
:103220000008004001234FF08042002509A884F8DF
:103230001437C4F83037099284F82C5784F834577F
:10324000ADF82850FEF778FB2946C4F83807FEF79A
:10325000F1F9D4F838070221FEF79EFAD4F83807BE
:103260000221FEF7D9FAD4F838070221FEF714FB41
:10327000D4F838070221FEF74FFBD4F838371B6823
:103280009A6802F00702062A33D14E4A0023012130
:10329000D36084F83417C4F8923684F88836C2F8BC
:1032A0000F3093605360C4F88C1684F8A636C4F8C7
:1032B000A836C4F8AC36C4F8B036C4F8B43684F8CE
:1032C000B836A4F890162DB0BDE8F0831A685607FA
:1032D0005FD41A6842F004021A605A693A435A618C
:1032E0001A6822F004021A601A6842F001021A6099
:1032F00007E71A68520751D41A6842F004021A60AC
:103300005A6942F001025A611A6822F004021A60F6
:103310001A6842F001021A60B7E71A68500747D4EA
:103320001A6842F004021A605A6942F001025A61B6
:103330001A6822F004021A601A6842F001021A6048
:103340002CE71A6851072ED41A6842F004021A605A
:103350005A6942F001025A611A6822F004021A60A6
:103360001A6842F001021A605CE71A68550724D413
:103370001A6842F004021A605A6942F001025A6166
:103380001A6822F004021A601A6842F001021A60F8
:10339000DBE65A6942F001025A61A5E75A6942F038
:1033A00001025A61B4E75A6942F001025A61D7E753
:1033B0005A6942F001025A61BEE75A6942F00102BD
:1033C0005A61E1E7E216002010B5874C94F8EC361C
:1033D0003BB9D4F8F0360122934284F8EC2600F091
:1033E0009A8094F8BC3613B9012384F8BC3694F85B
:1033F000D8363BB9D4F8DC2601239A4284F8D83673
:1034000000F0938023782BB96368012293422270E5
:1034100000F0968094F8FC363BB9D4F800370122CE
:10342000934284F8FC2600F0948094F84C1739B944
:10343000D4F850370122934284F84C2700F093804F
:1034400094F83C1739B9D4F840370122934284F8F4
:103450003C2700F09C8094F81C1739B9D4F8203729
:103460000122934284F81C2700F0A58094F80C17E1
:1034700031B9D4F810370122934284F80C2732D0A6
:1034800094F82C1731B194F8883613B9012384F8D5
:10349000883610BDD4F830370122934284F82C27A7
:1034A000F1D194F83437002BEDD0D4F83807026806
:1034B000136823F001031360FEF716F9D4F83807F8
:1034C0000221FEF789F9D4F838070221FEF7C4F982
:1034D000D4F838070221FEF7FFF9D4F838070221A3
:1034E000FEF722FACFE794F81437002BC8D0D4F8AF
:1034F00018070268136823F001031360FEF7F4F85D
:10350000D4F818070221FEF767F9D4F8180702214A
:10351000FEF7A2F9B4E794F8F436002B3FF461AF5C
:10352000D4F8F806FEF784F85BE794F8E036002B51
:103530003FF468AFD4F8E4060421FDF7FDFC61E731
:10354000237A002B3FF466AF4FF0FF33C4E90B330F
:1035500060E794F80437002B3FF467AFD4F808070E
:10356000FEF766F861E794F85437002B3FF468AF34
:10357000D4F858070268136823F001031360FEF7BC
:10358000B3F8D4F858070221FEF726F958E794F863
:103590004437002B3FF45FAFD4F848070268136844
:1035A00023F001031360FEF79FF8D4F848070221C7
:1035B000FEF712F94FE794F82437002B3FF456AF8B
:1035C000D4F828070268136823F001031360FEF79C
:1035D0008BF8D4F828070221FEF77EF9D4F82807E3
:1035E0000221FEF7A1F941E75010002010B5094C67
:1035F00023785A1C227023B1074A237001211160DD
:1036000010BD62B6FEF794FA72B62378013BDBB2C6
:10361000237010BD721E0020741E002070B5224E53
:10362000224C00233370237002F084FC00F02CF94C
:1036300000F05AF800F018FE00F0E8FD00F06CFD14
:1036400000F048FB62B600F007FF72B600F0DAFB4C
:1036500000F090FA00F086F900F044FD00F02CFA3A
:1036600000F06AFC00F0D4FCFFF71AFC72B69FED84
:10367000100A00F05FF80123237062B662B601E021
:1036800033784BB9237803F0FF05002BF8D1FFF70F
:103690009BFE72B6284670BD4FF0E022136923F0FE
:1036A00001031361EEE700BF711E0020701E0020B1
:1036B0006F12833A08B5014605231322034803F02D
:1036C000B3F8B0FA80F0400908BD00BF881E0020A2
:1036D00038B5054602F054FC044602F051FC001BCC
:1036E000A842FAD338BD00BF704700BF08B5BFF38A
:1036F0004F8FBFF36F8F094A0949136809688B42DE
:1037000006D30123136072B6FFF770FF62B608BDDF
:10371000591C1160002BF6D008BD00BF7C1E002094
:10372000781E0020024A536843F08053536070476C
:1037300000ED00E0264BD3ED007AF8EE677A30B466
:1037400067EE807AFCEEE77A17EE903AB3F1807F6D
:103750001FD3F8EE676A9FED1F7A1F49C6EE877A7E
:10376000FCEEE77A17EE902A0132B3FBF2F3013B4D
:10377000B3F1807F0A601ED3184B194C19491A48BF
:103780000860F02200252560DA7783F8222030BC1B
:1037900070471149013B0022B3F1807F0A60EBD2F0
:1037A0004FF0E0210D484B61F024072380F82340BF
:1037B0008A610B61E0E74FF0E02208485361F02492
:1037C0000021072380F8234091611361D4E700BFF3
:1037D0003C010020FFFF7F4B781E002000ED00E041
:1037E0007C1E0020801E0020ED360008EFF30080D4
:1037F00001B5EFF3118003B41EF0100F08BFB0EE57
:10380000400A0A48006803B488B004A006904FF04C
:10381000807007906FF006008646704703BC8047B3
:10382000BFF36F8F00DFFEE700BF0000801E0020A7
:103830001EF0100F08BFB0EE400A1EF0040F0CBFC0
:10384000EFF30880EFF30980816911F8020C10B1E1
:1038500001280DD00BE01EF0100F0CBF1AB008B0FD
:1038600003BC80F3118803BC80F300880847FEE79F
:103870004EF61451CEF200010A6842F001020A60CD
:103880007047F4E700BF00BF314A136823F00F030D
:1038900043F0050310B51360136803F00F03052B05
:1038A000FAD12C4A2C4B116841F440411160116847
:1038B00021F4803111601A6822F0F80242F080028F
:1038C0001A601A6842F001021A601A689207FCD561
:1038D00058682249204A014041F4285141F008012A
:1038E0005960596821F440315960196841F080717C
:1038F000196013689B01FCD59368174C23F0F00303
:103900009360936823F4E05343F4A0539360936867
:1039100023F4604343F420439360936823F003034C
:1039200043F002039360A36803F00C03082BFAD161
:103930000B4801F0F7FF0F2001F0C6F808B172B68E
:10394000FEE7D4F88C3023F08073C4F88C3010BDBF
:10395000003C024000700040003802400080BFFF81
:10396000007A030AF0B5002497B0CDE90244CDE90E
:103970000B44CDE90D44CDE90644CDE90844CDE939
:103980001244CDE91444454B04940F945A6C4448B6
:10399000444D42F480725A645A6C02F4807201926F
:1039A000019A1A6B42F001021A631B6B03F00103C8
:1039B0000093009B10A901220323CDE9102301F0FD
:1039C000C3F8394B1A6922F060621A611A6922F051
:1039D000C0021A611A6922F440321A611A6922F48B
:1039E00090721A611A6922F400721A611A6942F41B
:1039F00080621A611A6922F4C05242F400621A61AC
:103A00001A6922F4C04242F400521A615A6A22F042
:103A100004025A6202A9002600272846CDE902675F
:103A2000049402F0E1FA0BA94FF4807328460F9337
:103A3000CDE90B44CDE90D4402F0F2FAAB681B4826
:103A400023F48063AB6006A9CDE9066702F09EFA15
:103A50004FF4407393FAA3F34FF40072B3FA83F375
:103A6000DA40134850F8221021F01F0140F82210CC
:103A70004FF0007393FAA3F2B2FA82F22038D340E7
:103A80004FF0F87150F8232091FAA1F491FAA1F1C6
:103A900042F0070240F8232017B0F0BD0038024082
:103AA0000000024000200140006402400023014069
:103AB0002C2001400000000030B5202291B00DEB19
:103AC000020000210AF029FE274D284C002306930E
:103AD0002B6B43F020032B632B6B03F0200301932C
:103AE000032002210423CDE90201019A079302A9D0
:103AF000032201231E48CDE9042301F025F82B6C95
:103B000043F480032B642B6C03F480030093009B2D
:103B1000E36823F00103E360236823F0400323609C
:103B200023689FED0F7B23F0800323600022002396
:103B3000CDE90A23CDE90C2308A94FF480624FF4A4
:103B400080432046CDE90E238DED087B02F092FAEA
:103B5000E36823F0FE03E36011B030BDAFF30080F3
:103B600000000000A086010000380240005800401C
:103B7000001402402DE9F043002597B04FF02008D3
:103B8000424629460EA8ADF81E50CDF80E50CDF88D
:103B90001250CDF81650CDF81A500AF0BEFDCDE9FE
:103BA0000855CDE90A55CDE90C55474E336C43F025
:103BB00001033364336C03F001030293029B01247D
:103BC00042F20F7303A94FF08040ADF80C4005930B
:103BD00002F056FC21464FF080446022236823F017
:103BE00080032360A36943F00803A3612046CDE965
:103BF0000E250EAACDE91055129502F0A3FCA3697B
:103C000023F00403A361A36943F40063A3610EAA34
:103C10001021204602F096FCA36923F48063A3617F
:103C2000E36943F00803E3610EAA4FF48071204674
:103C300002F088FCE36923F00403E361E36943F4E1
:103C400000630EAAE3614FF48051204602F07AFC33
:103C5000E3691E4823F48063E361636823F0700323
:103C60006360A36823F08003A360336B43F0010318
:103C70003363336B03F001030193019B336B022722
:103C80003B433363336BCDF820803B4000934FF0D0
:103C900000084FF0010908A9009B0B95CDE90975B3
:103CA000CDE90C8900F050FF40F6084308A9084808
:103CB0000997CDE90C89CDE90A55089300F044FF36
:103CC00017B0BDE8F08300BF00380240000002409A
:103CD000000402402DE9F041002498B02146202242
:103CE00010A8CDE90444CDE9064408940AF015FD76
:103CF000CDE90C443F4D0E942B6C3F4E3F4843F0B2
:103D000002032B642B6C03F002030393039B2B6BC6
:103D100043F002032B632B6B03F002030293302268
:103D2000029B4FF002080AA90223CDE90A23CDF82D
:103D30003C8000F009FF292304A9ADF8103030467B
:103D400049F63F4306930594079402F099FB3368C4
:103D50004FF0804723F080033360D7F81C34602293
:103D600043F00803C7F81C344FF48071CDE91024E8
:103D7000304610AACDE91244149402F0E3FBD7F8C0
:103D80001C3423F00403C7F81C34D7F81C3443F464
:103D9000006310AAC7F81C344FF48051304602F07B
:103DA000D1FBD7F81C34164823F48063C7F81C34C1
:103DB000736823F070037360B36823F08003B3600B
:103DC0002B6B43F004032B632B6BCDF82C8003F09B
:103DD000040301934FF44073019A0A9300220223D3
:103DE0000AA9CDE90E23CDE90C4400F0ADFE18B0D0
:103DF000BDE8F081003802400004004000040240A9
:103E0000000802402DE9F043002499B02146202209
:103E100010A8CDE90444CDE9064408940AF07DFCDD
:103E2000CDE90C44404D0E942B6CDFF804913F4ECD
:103E300043F004032B642B6C03F004030393039BF4
:103E40002B6B43F008032B632B6B03F008030293E7
:103E50004FF44042029B4FF002080AA90223484651
:103E6000CDE90A23CDF83C8000F06EFE292304A999
:103E7000ADF81030304649F63F4306930594079459
:103E800002F0FEFA33684FF0804723F0800333607E
:103E9000D7F81838602243F00803C7F81838012112
:103EA000CDE91024304610AACDE91244149402F052
:103EB00049FBD7F8183823F00403C7F81838D7F8A7
:103EC000183843F4006310AAC7F818381021304698
:103ED00002F038FBD7F8183823F48063C7F8183895
:103EE000736823F070037360B36823F08003B360DA
:103EF0002B6B43F008032B632B6BCDF82C8003F066
:103F0000080301934FF44053019A0A9300220223BD
:103F10000AA94846CDE90C44CDE90E2300F014FE71
:103F200019B0BDE8F08300BF00380240000800402F
:103F3000000C02400000000070B5002496B0202262
:103F400021460EA8ADF81E40CDF80E40CDF8124027
:103F5000CDF81640CDF81A400AF0DFFBCDE9084451
:103F6000CDE90A44CDE90C44254D264E6B6C43F453
:103F700080236B646B6C03F480230293029B2923E0
:103F8000ADF80C3003A949F63F433046059302F0E3
:103F900077FA336823F080033360B369602143F01C
:103FA0000803B3610EAACDE90E1430460121CDE914
:103FB0001044129402F0C6FAB369134823F00403C4
:103FC000B3612B6B43F020032B632B6B0B949FEDA2
:103FD0000A7B03F02003019308A9022380220892A0
:103FE0008DED0C7BCDE90934019A00F0ADFD16B0E2
:103FF00070BD00BFAFF300800000000003000000B0
:104000000038024000480140001402400000000057
:1040100070B5002496B0202221460EA8ADF81E40AF
:10402000CDF80E40CDF81240CDF81640CDF81A402C
:104030000AF073FBCDE90844CDE90A44CDE90C440C
:10404000254D264E2B6C43F080032B642B6C03F024
:1040500080030293029B2923ADF80C3003A949F693
:104060003F433046059302F00BFA336823F0800398
:104070003360B369602143F00803B3610EAACDE950
:104080000E1430460121CDE91044129402F05AFA80
:10409000B369134823F00403B3612B6B43F020038F
:1040A0002B632B6B0B949FED0A7B03F02003019392
:1040B00008A902234FF4807208928DED0C7BCDE9A4
:1040C0000934019A00F040FD16B070BDAFF30080D6
:1040D000000000000900000000380240001C004001
:1040E0000014024010B50A480A4C00234FF4E13195
:1040F0000422C0E90041C0E90233C0E90432C0E94A
:10410000063302F0FFFA08B172B6FEE710BD00BF39
:10411000881E00200044004070B5002490B0CDE916
:104120000844CDE90A44CDE90C44CDE90544334BBC
:104130000E941A6C42F480221A641A6C02F48022E3
:104140000192019A1A6B42F008021A631B6B4FF43A
:10415000407003F008030221CDE90201009303221D
:10416000072302A92648009D0492079300F0ECFC67
:10417000244B254D9A6A22F0606242F000629A62F6
:104180009A6A22F0C0029A629A6A22F440329A62D3
:104190009A6A22F490729A629A6A22F400729A627F
:1041A0009A6A42F480629A629A6A22F4C0529A62CF
:1041B0009A6A22F4C0429A62DA6B22F00402DA634D
:1041C0004FF4E1360C22002308A92846CDE90C2340
:1041D000CDE90864CDE90A440E9402F0DFFB2B69B7
:1041E00023F490432B616B6923F02A036B61EB6826
:1041F00043F40053EB6010B070BD00BF00380240C4
:10420000000C02400060024000480040134B144A7A
:10421000196B30B441F400111963196B114C82B061
:1042200001F4001101910199196B41F480011963A6
:104230001B6B03F48003009300204FF48051009B1C
:10424000E56882F80C031160E16882F838034FF0EA
:104250008073536002B030BC704700BF003802402A
:1042600000E100E000ED00E02DE9F043002491B012
:10427000CDE90844CDE90C44CDE90E446A4B6B48C6
:104280001A6B6B4DDFF8B481DFF8B49142F0100285
:104290001A631A6B02F010020792079A1A6B42F027
:1042A00004021A631A6B02F004020692069A1A6B51
:1042B00042F020021A631A6B02F020020592059A5E
:1042C0001A6B42F080021A631A6B02F080020492A9
:1042D000049A1A6B42F001021A631A6B02F001028F
:1042E0000392039A1A6B42F002021A631A6B02F0ED
:1042F00002020292029A1A6B42F008021A631A6BC7
:1043000002F008020192019A1A6B42F040021A630D
:104310001B6B03F0400300934FF4F803009A836192
:104320004FF48003AB614FF02073C8F818300126BA
:104330007C230AA9CDE90A36022700F005FC4FF4D8
:104340008043CDE90A370AA9092340460F93CDE9F6
:104350000C440E9400F0F8FB40230AA928460A9367
:10436000CDE90B64CDE90D4400F0EEFB80230AA9F2
:1043700028460A930B940E9400F0E6FB4FF4E853A2
:104380000A930AA90A23032548460F93CDE90D4451
:104390000B970C9500F0D8FB4FF400730AA9484620
:1043A0000A930B940E9400F0CFFB0AA94FF42073EC
:1043B00040460A93CDE90B64CDE90D4400F0C4FBFF
:1043C0001C49F0224B6992FAA2F2B2FA82F29740AB
:1043D00023F0F0033B434B614FF4005408A80894CA
:1043E000ADF824608DF8266001F0A2FA124AD16877
:1043F00094FAA4F3B3FA83F3B34005FA03F321EA82
:10440000030394FAA4F1D360116894FAA4F3B3FA05
:1044100083F3B3409D4021EA050194FAA4F41160AE
:1044200011B0BDE8F08300BF003802400010024028
:104430000018024000380140000802400004024019
:1044400000000240034B02689A4200D0704701F01E
:104450008BBD00BF000C004070B5194C194E1A4DB1
:104460001A4B336084B06FF07F4223602A6002F001
:10447000B3FB174A2B681360164B20681649186067
:10448000366816480E60164C0290164801900020BF
:104490000090204602F0DAFE204602F071FF94F808
:1044A00031305B07204608D502F070FF0E490C48FA
:1044B00004B0BDE8704002F0ABBF02F08DFFF5E73D
:1044C000CC1E0020D41E0020D01E0020C0A8020355
:1044D000DC1E0020D81E0020E01E0020B96A000863
:1044E000E41E0020054800083949000808B50348C3
:1044F00000F006F9BDE8084007F0FAB9E41E002014
:104500002DE9F04F2D4BDE6A83B0B3688B4600294E
:1045100051D00025A84640F2F4593268002A1FDB2A
:10452000BBF80A2057194F4540D9002402E04F45F7
:10453000B36825D9DBF80410A9EB050A5819214402
:1045400052460AF060F9F668336804F2F454002B1E
:10455000A4EB0504A7F2F457D0444FF00005E6DAC7
:104560006FF00700154B1B6803F580535A699206DC
:1045700003D52021002259615A6003B0BDE8F08FB5
:1045800018463D46DBF80410019321443A460AF0F0
:104590003AF9DBF800B0019BB844BBF1000FBCD185
:1045A0000648414600F094FE0020DBE7581900243D
:1045B0003D461746E6E78846F2E700BF1C1F00208D
:1045C000F0B54A4B02688FB000249A42CDE9084406
:1045D000CDE90A440C9401D00FB0F0BDA3F590438F
:1045E00001941A6B424842F000721A631A6B02F08F
:1045F00000720192019A02941A6B42F080621A636F
:104600001A6B02F080620292029A03941A6B42F0D3
:1046100000621A631A6B02F000620392039A049418
:104620001A6B42F004021A631A6B02F0040204923D
:10463000049A05941A6B42F001021A631A6B02F095
:1046400001020592059A06941A6B42F002021A635F
:104650001A6B02F002020692069A07941A6B42F055
:1046600040021A631B6B03F04003322203260B2522
:10467000079308A90223CDE908230227079BCDE968
:104680000B6501F0F5F9862308A91A480C95CDE9C8
:104690000837CDE90A4601F0EBF942F2011308A907
:1046A00015480893CDE90974CDE90B6501F0E0F9EF
:1046B0004FF4205308A911480893CDE90A460997F9
:1046C0000C9501F0D5F9224621463D2001F0E8FB8A
:1046D0003D2001F021FC224621463E2001F0E0FB76
:1046E0003E2001F019FC0FB0F0BD00BF0080024079
:1046F000000802400000024000040240001802408E
:104700002DE9F04FDFF8F8A083B00346504601933F
:1047100000F05AFE28BBBAF83C10DAF8404039BB2A
:1047200000230093DAF83800DAF83030002138B18D
:104730001A68013142F000421A608842DB68F7D102
:10474000DAF8003003F5805300225969CAF838209E
:10475000090609D4009820B101990B6998470028EF
:1047600048D103B0BDE8F08F802159619A60F1E72C
:104770004FF4C172054602F0B5FF00900028CFD07B
:10478000834640F2F459BBF80A20DAF83070561923
:104790004E45A04628D90024DBF8040008EB0501AB
:1047A000A9EB050220440AF02EF8A6F2F456FF68A1
:1047B00004F2F4544E45A4EB0504D7F808804FF0FA
:1047C0000005E9D841463546DBF80400324620446E
:1047D0000AF019F8DBF800B0BBF1000FA2D0BBF86B
:1047E0000A2056194E45D6D808EB05010024354657
:1047F0001646E9E7009803B0BDE8F04F02F004BFA9
:104800001C1F002030B5044685B000286ED03B4DFB
:104810003B49616247F2734262863A4A2A604FF42A
:1048200080410122C5E901214FF40061E960364968
:104830003648374B029102A96061A3616961002388
:104840004FF400012846C5E9062301932B82ADF8F9
:104850000C30296200F06AFB28B994F8313043F03B
:10486000040384F831302B4A2B492448042300F0F8
:1048700081FA2A4A2A492148042300F003FB6B6984
:10488000062284F830201A7884F82A205A7884F88E
:104890002B209A7884F82C20DA7884F82D20187947
:1048A00094F8312084F82E00587984F82F0042F0D3
:1048B0000A0340F2DC5184F8313021850F4800F0C2
:1048C0007FFE01AA1D210D4800F008FE019A0B4849
:1048D00042F00B021D21019200F03AFE01AA1D21B7
:1048E000064800F0FBFD002005B030BD0D4B0E4921
:1048F0000E4840F2222209F0ABFE88E71C1F002080
:1049000018F50008008002400080E100F1CA0008AC
:1049100001450008641F0020044F002034370020A8
:10492000844F00209CF40008E0F40008F0F4000834
:1049300001F026BB704700BF30B590F8313083B02E
:104940000021054658070091019130D5244C636839
:10495000BBB14FF48052204600F0FAFD01F010FB8D
:10496000009002E0019B9A0629D401AA0121204669
:1049700000F0B4FD01F004FB009BC31AB3F57A7F8D
:10498000F0D9D4E90223520842EAD302144892B281
:10499000002100F0DDFD0021114800F0EFFE10487D
:1049A00000F00EFE2846FFF7C5FF03B030BD0C48EF
:1049B00000F074FE2846FFF7BDFF03B030BD01AA2A
:1049C0000748102100F08AFD019AC2F38003DB0240
:1049D000E36093074CBF00234FF48043A360DAE702
:1049E0001C1F0020FEE700BFFEE700BFFEE700BF80
:1049F000FEE700BFFEE700BF704700BF704700BF83
:104A0000014801F08FBC00BF04500020014800F0B5
:104A100027BD00BF1C1F002082B00C4B002100915D
:104A20005A6C42F480425A645A6C02F480420092FA
:104A3000009A01911A6C42F080521A641B6C03F0C8
:104A400080530193019B02B0704700BF00380240C1
:104A500010B51B4A016888B000239142CDE90233AA
:104A6000CDE90433069301D008B010BD02F5FA3247
:104A70000093106C40F400301064106C00F40030AF
:104A8000009000980193136B0E4843F008031363E2
:104A9000136B9FED097B03F00803019303220723A7
:104AA00002A98DED027BCDE90523019C00F0E0FF1A
:104AB00008B010BDAFF300806000000002000000ED
:104AC00000440040000C024030B5014689B000228D
:104AD000322001F0E5F9322001F01EFA0025164BD4
:104AE00002951A6C154C42F008021A641B6C03F014
:104AF000080301A903A80293029B00F097FF00F0AE
:104B000075FF0F4A0F4921604300A2FB03239B0C52
:104B100040F2E732013B2046C4E903256360A5600B
:104B200001F02EFB10B1012009B030BD204601F08C
:104B3000B7FB09B030BD00BF003802400450002070
:104B400083DE1B43000C00402DE9F0430C6894FA0F
:104B5000A4F2B2FA82F234FA02F378D04FF0010EE6
:104B60004FF0030C15E0076893FAA3F6B6FA86F641
:104B700093FAA3F3B3FA83F376000CFA06F65B001C
:104B800027EA06079D402F430760013234FA02F3FB
:104B90005DD00EFA02F32340F7D04D686E1E012E51
:104BA0001DD8876893FAA3F6B6FA86F693FAA3F8A7
:104BB00076000CFA06F627EA0609B8FA88F88E6835
:104BC0004FEA480706FA07F749EA0706866046688B
:104BD000CF6826EA030603FB07F73E434660C76833
:104BE00093FAA3F6B6FA86F693FAA3F876000CFACF
:104BF00006F627EA0606B8FA88F80F694FEA480869
:104C000007FA08F73E43022DC660ACD193FAA3F72A
:104C1000B7FA87F7072FD1F814804FEA132619DC6B
:104C2000076A93FAA3F9B9FA89F993FAA3F6B6FADF
:104C300086F6B60008FA06F64FEA89094FF00F0823
:104C400008FA09F827EA08073E4306628BE70020C6
:104C5000BDE8F083476A96FAA6F9B9FA89F996FA97
:104C6000A6F6B6FA86F6B60008FA06F84FEA8909FB
:104C70000F2606FA09F627EA060747EA08074762F9
:104C800071E700BF70B50446002961D1D0E9020385
:104C900018432168E2690D68324BB2FA82F22B4068
:104CA0005209034343EA822343F400730B6001205B
:104CB0000D68FEF70DFD236840221D6001205A603B
:104CC0005E68FEF705FD236800255E609D60DD607F
:104CD0009A694FF641710A4042F080029A610120C0
:104CE0009E69FEF7F5FC236801209E61DD61DD69A8
:104CF000FEF7EEFC22681C4BD56102F580520120C4
:104D000091690B4043F0087343F004039361956984
:104D1000FEF7DEFC2368154A03F5805301209D61F0
:104D20001A601D68FEF7D4FC2368A26903F580535E
:104D3000012A1D6005D1DA6942F4803242F0400256
:104D4000DA6162690A4B9188196412685A6470BD0D
:104D50004FF480424FF40063C0E902234FF49040C7
:104D600097E700BF0F8120FF233FDEF88020C102BC
:104D7000008002402DE9F041864690F84500012868
:104D80007CD001208EF8450002208EF84400CEF839
:104D90002C107BB3DEF81C005C1EC0B3ACB19C428F
:104DA00028BF1C46A4461546084600244FF4801729
:104DB0000646013485600760644500F1200005F275
:104DC000F455F060F4D3A34214D940F2F45000FB40
:104DD000042201EB441C4FF480100134A342CCF8B0
:104DE0000820CCF80000CCF80C1002F2F4520CF1C0
:104DF000200CF2D8DEF8003003F5805300200122A9
:104E000019618EF844208EF84500BDE8F081CCB1E0
:104E10009C4228BF1C46A046164604460D464FF449
:104E200080172F602868AE6040F44000AC46013423
:104E300045F8200B444506F2F456CCF80C50F0D35C
:104E4000A342D7D940F2F45000FB042501EB441CE7
:104E50004FF48010CCF80000DCF80020CCF80850AB
:104E6000013442F44002A342CCF80020CCF80C10EC
:104E700005F2F4550CF1200CECD8BBE70220BDE89C
:104E8000F08100BF2DE9F041864690F845000128E9
:104E900049D001208EF8450002208EF84400CEF85B
:104EA00028109BB3B3F1010C1AD09C4528BF9C4637
:104EB000E04615460C464FF0000C4FF0004744F218
:104EC000F45620460CF1010CA56027606660E045B1
:104ED00004F12004C46005F2F455F2D8634515D9F5
:104EE00040F2F45000FB0C2201EB4C144FF0004553
:104EF00044F2F4500CF1010C9C45A2602560606006
:104F0000E16002F2F45204F12004F3D3DEF8003041
:104F100003F5805300200122D9608EF844208EF8DA
:104F20004500BDE8F0810220BDE8F081002800F0D6
:104F3000BD812DE9F04790F8443082B0044603F07B
:104F4000FF02002B00F0D880AD4B00220192596C7B
:104F5000AC4A41F4804159645B6C03F48043019393
:104F6000019B5168236821F4000151605168206A57
:104F700003F58053014351601A6842F001021A6040
:104F800000F0FEFF054605E000F0FAFF401BB0F51B
:104F9000FA7F48D8236803F580521268D107F3D40A
:104FA0001D6900F01DFD984B984A0344934225F07B
:104FB0001C0580F0A68045F008052268156194F86C
:104FC0004430422B24D04221238A84F844101169B2
:104FD000DB0201F01C019BB20B4343F003034FF4CF
:104FE00000415161136100F0CBFF064604E02368E5
:104FF0001D6915F001051ED000F0C2FF801BB0F541
:10500000803FF4D30122002384F8442084F8453003
:1050100020460121FFF736FE012384F844300120A9
:1050200002B0BDE8F087032384F84430002384F8FD
:1050300045300320F4E74FF0010884F84480FF2056
:10504000FEF746FB6368002B70D000F099FF4FF02D
:1050500082090746AA4694F84430822B1ED0216864
:10506000238A84F844900A69DB0202F01C029BB296
:10507000134343F041030B6100F082FF064603E057
:1050800023681A69D2077DD500F07AFF801BB0F53E
:10509000803FF5D384F8448084F845A000F070FF89
:1050A00041F28833C01B984271D86E07D3D594F86B
:1050B0004430422BACD02268238A422184F8441029
:1050C0001169DB0201F01C019BB20B4343F00303A7
:1050D0004FF480515161136100F052FF064604E025
:1050E00023681F6917F001076BD000F049FF801B90
:1050F000B0F5803FF4D385E780F84520FFF760FAEC
:1051000022E7434B434A0344934238D9424B434A34
:1051100003449342FFF451AF414B424A034493424C
:1051200094BF45F0040545F0100546E7D4E9023286
:1051300094F844105B0843EAD20342299AB23FF440
:1051400067AF2168238A422084F8440008694A61D5
:10515000DB0200F01C009BB2034343F003030B612E
:1051600000F00EFF054603E023681B69DB0716D538
:1051700000F006FF401BB0F5803FF5D342E745F055
:105180000C051AE75D6984F84480ADB286E7012119
:105190002046FFF777FD012384F8443046E70123DA
:1051A00084F8443040F6FF70FEF792FA2046002162
:1051B000FFF768FD0123002084F8443002B0BDE809
:1051C000F0874FF0010984F8449000F0D9FE4FF0C9
:1051D000820A804694F84430822B33D02168238A97
:1051E00084F844A00A69DB0202F01C029BB213435C
:1051F00043F041030B6100F0C3FE064618E000BF18
:10520000003802400038014000D3CEFEC0E1E40087
:1052100040F1E9FD3F787D0100796CFC005A6202A3
:10522000001F0AFA7FF0FA0223681A69D00738D5FE
:1052300000F0A6FE801BB0F5803FF5D384F84490C3
:1052400084F8457000F09CFE41F28833A0EB080022
:1052500098429CD8A906BDD594F84430822B3FF4DF
:10526000D7AE2168238A822284F844200A69DB02AF
:1052700002F01C029BB2134343F4806343F001032A
:105280000B6100F07DFE054604E02268136913F00F
:1052900001030DD000F074FE431BB3F5803FF4D33F
:1052A000B0E65D6984F84490ADB2CBE70120704769
:1052B0005169C1F38002D202E2608A074FF0010017
:1052C00058BF4FF4804384F84400A3606EE700BFEA
:1052D00090F84530012B71D00123022280F845302F
:1052E00080F84420002940D0C36A1A68002A3BDBBA
:1052F00040F2F452914230B541D9314CA4FB014EF9
:105300004FEA9E2E02FB1E12002A35D00EF1010E2E
:105310002C4A01F2F45102FB0E111A6822F040529D
:105320001A601A6840F2F45442F08052C1F30C0142
:105330001A605C604FF0000C0EF1FF351A680CF13A
:10534000010C42F00042E6451A60DB6823D01A687F
:105350005C6022F0405265451A60EFD11A685960CE
:1053600042F000521A60E9E7122380F8443000232B
:1053700080F8453001207047BEF1010FC8D11A688E
:1053800042F040521A601A68C1F30C0142F0004228
:1053900059601A60DB680268C36202F580535A697B
:1053A000520703D50421002259615A6000230122CB
:1053B00080F8442080F84530184630BD0220704700
:1053C0000BB002AC0CFAFFFF90F84520012A3ED04A
:1053D0000346826A0221012030B483F8450083F835
:1053E0004410116800290BDB1168D46811F4807136
:1053F0000ED11568AD0525D5C3E90C2198639C62D3
:105400000120002283F8440083F8452030BC704717
:10541000996B014481420CBF1046186B9963116867
:10542000856808BF1A630020C1F30D415A63012249
:10543000043983F8442083F845001D649C62D963D5
:1054400030BC70479A6B9C6201329A63D8E70220A5
:10545000704700BF704700BF704700BF704700BF74
:1054600038B5036803F5805304465D6915F04005BF
:1054700025D15A69D20716D44FF480325A615B693C
:105480001B0400D438BD2046FFF7E8FF236803F56E
:1054900080534FF4004001210022586184F84410E9
:1054A00084F8452038BDFFF7D5FF236803F5805306
:1054B00001225A6184F8442084F84550DCE7FFF764
:1054C000CBFF236803F5805340200121002258615F
:1054D00084F8441084F84520CEE700BF90F84430AB
:1054E000822B33D070B504468223006884F84430A0
:1054F000238A154689010269DB0201F4F8619BB237
:1055000002F01C020B43134343F00103036100F05C
:1055100037FD064604E021680B6913F001030DD046
:1055200000F02EFD831BB3F5803FF4D3012200234E
:1055300084F8442084F84530032070BD4A69012175
:1055400092B22A6084F84410184670BD0220704759
:1055500038B590F84430422B30D0044642230068DE
:1055600084F84430238A05698901DB0201F4F8617B
:105570009BB205F01C050B432B4392B243F003038F
:105580004261036100F0FCFC054604E023681B69EE
:1055900013F001030DD000F0F3FC431BB3F5803F83
:1055A000F4D30122002384F8442084F845300320FA
:1055B00038BD012284F84420184638BD022038BD89
:1055C00090F84530012B62D030B4014686B00268B5
:1055D00002240120002381F8444081F8450004930F
:1055E00014682C4844F0080403681460126804929C
:1055F000294AA2FB03235B0A059300BF059B5A1EA1
:105600000592002BF9D10A68049C14600293146877
:10561000036844F004041460126802921E4AA2FB5C
:1056200003235B0A039300BF039B5A1E0392002BC4
:10563000F9D10A68029C146002F5805200939469C3
:105640000368154D44F480149461A5FB03539269DB
:1056500000925B0A019300BF019B5A1E0192002B2E
:10566000F9D10A68009802F580520124906190698E
:1056700040F400509061906940F00200906118463B
:1056800081F8444081F8453006B030BC70470220B4
:10569000704700BF3C010020D34D621090F84530A8
:1056A000012B64D00268014630B402F5805301201A
:1056B000022481F8444081F84500986920F40050A4
:1056C0009861986986B0002420F0020098610494E3
:1056D0001468284824F004040368146012680492D3
:1056E000254AA2FB03235B0A059300BF059B5A1EB4
:1056F0000592002BF9D10A68049C146002F58052CF
:1057000002939469036844F480149461926902924C
:10571000194AA2FB03235B0A039300BF039B5A1E93
:105720000392002BF9D10C680268029D04F58050A9
:10573000856100932368104823F008032360A0FBD1
:1057400002035B0A22680092019300BF019B5A1E6C
:105750000192002BF9D10868009C046001221846D0
:1057600081F8442081F8453006B030BC70470220F3
:10577000704700BF3C010020D34D6210F8B590F88F
:105780004530012B7FD00C4601260223026880F8A9
:105790004560054680F84430D0E90201002C64D011
:1057A000D4E900373B43A7683B43E7683B4327699D
:1057B0003B4367693B43A7693B43E7693B43276A30
:1057C0003B43676A3B43A76A3B4303430B43106871
:1057D0002E4901400B43136030461768FDF778FFF0
:1057E000D4E90B310B43616B2A680B43A16B176043
:1057F0000B43E16B0B43216C0B43616C0B43A16CBE
:105800000B43536030465768FDF762FF2A68E36C2C
:1058100057609360236DD360D4E916300343206E44
:1058200091690343606E0343A06E0343606D43EAD6
:1058300000434FF6417001400B4393613046976936
:10584000FDF746FFD4E91B212B680A439F613046D0
:10585000DA61DC69FDF73CFF2B68DC610020012385
:1058600085F8443085F84500F8BD40EA0103116829
:1058700021F490410B43136030461468FDF728FF74
:105880002B681C60EAE70220F8BD00BF0F8120FFF3
:105890001F4A936803F00C03042B10B435D0082B77
:1058A00031D151681B4C1C4B11F4800F516808BF5B
:1058B000234601F03F01B3FBF1F351685268C2F394
:1058C0000142C1F38811013201FB03F35200B3FB23
:1058D000F2F30F4A03609168104CC1F30311615C4D
:1058E0000F4CCB4043609168C1F38221615C23FA85
:1058F00001F181609268C2F34232A25C5DF8044B10
:10590000D340C3607047034BE3E7034BE1E700BFBD
:10591000003802400024F40000127A002813010825
:1059200020130108014B1860704700BF3C010020A4
:10593000027901680346CAB109B34279012A20D02D
:10594000022A29D032BB254A506820EA0100506063
:1059500010680843106000209B7933B1022B34D0CB
:10596000032B2AD0012B1FD0012070471B4B1A6834
:1059700022EA01021A605A6822EA01025A600020F3
:105980007047164A106820EA01001060506808430A
:105990005060E0E70120DFE7104A1068084310601C
:1059A000506808435060D6E70C4BDA6822EA0102DF
:1059B000DA609A680A439A607047084B9A680A430B
:1059C0009A60DA680A43DA607047044B9A6822EA00
:1059D00001029A60DA680A43DA607047003C0140CD
:1059E000014B1868704700BF3C010020044B05497B
:1059F0009B68054A0868C3F38223D35CD84070478C
:105A0000003802403C01002020130108044B0549E6
:105A10009B68054A0868C3F34233D35CD84070479B
:105A2000003802403C010020201301080E4B0F22D9
:105A300002609A6802F0030242609A6802F0F00283
:105A400082609A6802F4E052C2609B68DB0810B47E
:105A500003F4E053054C036123685DF8044B03F045
:105A60000F030B60704700BF00380240003C02404B
:105A70002DE9F04FA94A0B68904285B04FF0000223
:105A800000F0DE80DFF8A4824FF0010B8A4603E0CD
:105A90000132102A00F0A8800BFA02F101EA030695
:105AA0009943F5D1DAF8044004F0030C51000325C2
:105AB0000CF1FF378D40012F6FEA05055AD9BCF173
:105AC000030F40F0C18107680CFA01F13D40294302
:105AD00014F4403F0160DBD0914D00210391696CCB
